{
  "_format": "hh-sol-artifact-1",
  "contractName": "Deployer",
  "sourceName": "contracts/ZFace.sol",
  "abi": [
    {
      "anonymous": false,
      "inputs": [
        {
          "indexed": false,
          "internalType": "address",
          "name": "addr",
          "type": "address"
        }
      ],
      "name": "Deployed",
      "type": "event"
    },
    {
      "inputs": [
        {
          "internalType": "bytes32",
          "name": "salt",
          "type": "bytes32"
        },
        {
          "internalType": "address",
          "name": "owner",
          "type": "address"
        },
        {
          "internalType": "bytes32[128]",
          "name": "faceEncoding",
          "type": "bytes32[128]"
        },
        {
          "internalType": "bytes32",
          "name": "threshold",
          "type": "bytes32"
        }
      ],
      "name": "deploy",
      "outputs": [
        {
          "internalType": "address",
          "name": "addr",
          "type": "address"
        }
      ],
      "stateMutability": "payable",
      "type": "function"
    },
    {
      "inputs": [
        {
          "internalType": "bytes32",
          "name": "salt",
          "type": "bytes32"
        },
        {
          "internalType": "address",
          "name": "owner",
          "type": "address"
        },
        {
          "internalType": "bytes32[128]",
          "name": "faceEncoding",
          "type": "bytes32[128]"
        },
        {
          "internalType": "bytes32",
          "name": "threshold",
          "type": "bytes32"
        }
      ],
      "name": "getAddress",
      "outputs": [
        {
          "internalType": "address",
          "name": "",
          "type": "address"
        }
      ],
      "stateMutability": "view",
      "type": "function"
    },
    {
      "inputs": [
        {
          "internalType": "address",
          "name": "owner",
          "type": "address"
        },
        {
          "internalType": "bytes32[128]",
          "name": "faceEncoding",
          "type": "bytes32[128]"
        },
        {
          "internalType": "bytes32",
          "name": "threshold",
          "type": "bytes32"
        }
      ],
      "name": "getBytecode",
      "outputs": [
        {
          "internalType": "bytes",
          "name": "",
          "type": "bytes"
        }
      ],
      "stateMutability": "pure",
      "type": "function"
    }
  ],
  "bytecode": "0x6080604052348015600f57600080fd5b50610b4a8061001f6000396000f3fe6080604052600436106100345760003560e01c80630e1e8619146100395780637a847acf14610076578063d9cdbbdc14610096575b600080fd5b61004c610047366004610351565b6100c3565b60405173ffffffffffffffffffffffffffffffffffffffff90911681526020015b60405180910390f35b34801561008257600080fd5b5061004c610091366004610351565b61013b565b3480156100a257600080fd5b506100b66100b1366004610398565b6101d9565b60405161006d91906103fc565b6000806100d18585856101d9565b90508581516020830134f59150813b6100e957600080fd5b60405173ffffffffffffffffffffffffffffffffffffffff831681527ff40fcec21964ffb566044d083b4073f29f7f7929110ea19e1b3ebe375d89055e9060200160405180910390a150949350505050565b6000806101498585856101d9565b8051602091820120604080517fff00000000000000000000000000000000000000000000000000000000000000818501523060601b7fffffffffffffffffffffffffffffffffffffffff00000000000000000000000016602182015260358101999099526055808a01929092528051808a0390920182526075909801909752865196019590952095945050505050565b6060604051806020016101eb90610284565b7fffffffffffffffffffffffffffffffffffffffffffffffffffffffffffffffe082820381018352601f9091011660408190526102309086908690869060200161044d565b604080517fffffffffffffffffffffffffffffffffffffffffffffffffffffffffffffffe08184030181529082905261026c92916020016104a4565b60405160208183030381529060405290509392505050565b610641806104d483390190565b803573ffffffffffffffffffffffffffffffffffffffff811681146102b557600080fd5b919050565b600082601f8301126102cb57600080fd5b604051611000810181811067ffffffffffffffff82111715610316577f4e487b7100000000000000000000000000000000000000000000000000000000600052604160045260246000fd5b6040528061100084018581111561032c57600080fd5b845b8181101561034657803583526020928301920161032e565b509195945050505050565b600080600080611060858703121561036857600080fd5b8435935061037860208601610291565b925061038786604087016102ba565b939692955092936110400135925050565b600080600061104084860312156103ae57600080fd5b6103b784610291565b92506103c685602086016102ba565b92959294505050611020919091013590565b60005b838110156103f35781810151838201526020016103db565b50506000910152565b602081526000825180602084015261041b8160408501602087016103d8565b601f017fffffffffffffffffffffffffffffffffffffffffffffffffffffffffffffffe0169190910160400192915050565b73ffffffffffffffffffffffffffffffffffffffff841681526110408101602082018460005b6080811015610492578151835260209283019290910190600101610473565b50505082611020830152949350505050565b600083516104b68184602088016103d8565b8351908301906104ca8183602088016103d8565b0194935050505056fe6080604052604051610641380380610641833981016040819052610022916100bf565b600080546001600160a01b0319166001600160a01b03851617905561004a6001836080610056565b50608155506101639050565b8260808101928215610084579160200282015b82811115610084578251825591602001919060010190610069565b50610090929150610094565b5090565b5b808211156100905760008155600101610095565b634e487b7160e01b600052604160045260246000fd5b600080600061104084860312156100d557600080fd5b83516001600160a01b03811681146100ec57600080fd5b9250603f840185136100fd57600080fd5b60405161100081016001600160401b0381118282101715610120576101206100a9565b6040528061102086018781111561013657600080fd5b602087015b8181101561015357805183526020928301920161013b565b5051949791965093945092505050565b6104cf806101726000396000f3fe6080604052600436106100385760003560e01c80632b7ac3f3146100445780634bb78b141461009b5780638e760afe146100bd57600080fd5b3661003f57005b600080fd5b34801561005057600080fd5b506000546100719073ffffffffffffffffffffffffffffffffffffffff1681565b60405173ffffffffffffffffffffffffffffffffffffffff90911681526020015b60405180910390f35b3480156100a757600080fd5b506100bb6100b63660046102f8565b6100ed565b005b3480156100c957600080fd5b506100dd6100d8366004610366565b61017a565b6040519015158152602001610092565b6100f7828261017a565b610161576040517f08c379a000000000000000000000000000000000000000000000000000000000815260206004820152600e60248201527f4e6f7420617574686f72697a6564000000000000000000000000000000000000604482015260640160405180910390fd5b8273ffffffffffffffffffffffffffffffffffffffff16ff5b6040805160818082526110408201909252600091829190602082016110208036833701905050905060005b60808110156101e857600181608081106101c1576101c16103a8565b01548282815181106101d5576101d56103a8565b60209081029190910101526001016101a5565b50608154816080815181106101ff576101ff6103a8565b6020908102919091010152600080546040517fea50d0e400000000000000000000000000000000000000000000000000000000815273ffffffffffffffffffffffffffffffffffffffff9091169063ea50d0e490610265908890889087906004016103d7565b602060405180830381865afa158015610282573d6000803e3d6000fd5b505050506040513d601f19601f820116820180604052508101906102a69190610470565b95945050505050565b60008083601f8401126102c157600080fd5b50813567ffffffffffffffff8111156102d957600080fd5b6020830191508360208285010111156102f157600080fd5b9250929050565b60008060006040848603121561030d57600080fd5b833573ffffffffffffffffffffffffffffffffffffffff8116811461033157600080fd5b9250602084013567ffffffffffffffff81111561034d57600080fd5b610359868287016102af565b9497909650939450505050565b6000806020838503121561037957600080fd5b823567ffffffffffffffff81111561039057600080fd5b61039c858286016102af565b90969095509350505050565b7f4e487b7100000000000000000000000000000000000000000000000000000000600052603260045260246000fd5b604081528260408201528284606083013760006060848301015260007fffffffffffffffffffffffffffffffffffffffffffffffffffffffffffffffe0601f8501168201606081016060848303016020850152808551808352608084019150602087019350600092505b808310156104645783518252602082019150602084019350600183019250610441565b50979650505050505050565b60006020828403121561048257600080fd5b8151801515811461049257600080fd5b939250505056fea2646970667358221220c7148d0fdbef01f81bb2e2155f6cf544f5994b2bc7cb9d10d028e8f5b292c74a64736f6c634300081d0033a2646970667358221220b64f81b928d2a7a59bc11191de4433477fa5fd37545b53e8308da7544ec1f79c64736f6c634300081d0033",
  "linkReferences": {},
  "deployedLinkReferences": {}
}