{
  "_format": "hh-sol-artifact-1",
  "contractName": "ZFace",
  "sourceName": "contracts/ZFace.sol",
  "abi": [
    {
      "inputs": [
        {
          "internalType": "address",
          "name": "_verifier",
          "type": "address"
        },
        {
          "internalType": "bytes32[128]",
          "name": "_faceEncoding",
          "type": "bytes32[128]"
        },
        {
          "internalType": "bytes32",
          "name": "_threshold",
          "type": "bytes32"
        }
      ],
      "stateMutability": "nonpayable",
      "type": "constructor"
    },
    {
      "inputs": [
        {
          "internalType": "uint256",
          "name": "",
          "type": "uint256"
        }
      ],
      "name": "faceEncoding",
      "outputs": [
        {
          "internalType": "bytes32",
          "name": "",
          "type": "bytes32"
        }
      ],
      "stateMutability": "view",
      "type": "function"
    },
    {
      "inputs": [],
      "name": "threshold",
      "outputs": [
        {
          "internalType": "bytes32",
          "name": "",
          "type": "bytes32"
        }
      ],
      "stateMutability": "view",
      "type": "function"
    },
    {
      "inputs": [],
      "name": "verifier",
      "outputs": [
        {
          "internalType": "contract HonkVerifier",
          "name": "",
          "type": "address"
        }
      ],
      "stateMutability": "view",
      "type": "function"
    },
    {
      "inputs": [
        {
          "internalType": "bytes",
          "name": "proof",
          "type": "bytes"
        }
      ],
      "name": "verify",
      "outputs": [
        {
          "internalType": "bool",
          "name": "",
          "type": "bool"
        }
      ],
      "stateMutability": "view",
      "type": "function"
    },
    {
      "inputs": [
        {
          "internalType": "address payable",
          "name": "to",
          "type": "address"
        },
        {
          "internalType": "bytes",
          "name": "proof",
          "type": "bytes"
        }
      ],
      "name": "withdraw",
      "outputs": [],
      "stateMutability": "nonpayable",
      "type": "function"
    },
    {
      "stateMutability": "payable",
      "type": "receive"
    }
  ],
  "bytecode": "0x608060405234801561001057600080fd5b506040516106e83803806106e883398101604081905261002f916100cc565b600080546001600160a01b0319166001600160a01b0385161790556100576001836080610063565b50608155506101709050565b8260808101928215610091579160200282015b82811115610091578251825591602001919060010190610076565b5061009d9291506100a1565b5090565b5b8082111561009d57600081556001016100a2565b634e487b7160e01b600052604160045260246000fd5b600080600061104084860312156100e257600080fd5b83516001600160a01b03811681146100f957600080fd5b9250603f8401851361010a57600080fd5b60405161100081016001600160401b038111828210171561012d5761012d6100b6565b6040528061102086018781111561014357600080fd5b602087015b81811015610160578051835260209283019201610148565b5051949791965093945092505050565b6105698061017f6000396000f3fe60806040526004361061005e5760003560e01c80634bb78b14116100435780634bb78b14146100e557806352f93b17146101075780638e760afe1461012757600080fd5b80632b7ac3f31461006a57806342cde4e8146100c157600080fd5b3661006557005b600080fd5b34801561007657600080fd5b506000546100979073ffffffffffffffffffffffffffffffffffffffff1681565b60405173ffffffffffffffffffffffffffffffffffffffff90911681526020015b60405180910390f35b3480156100cd57600080fd5b506100d760815481565b6040519081526020016100b8565b3480156100f157600080fd5b50610105610100366004610379565b610157565b005b34801561011357600080fd5b506100d76101223660046103e7565b6101e4565b34801561013357600080fd5b50610147610142366004610400565b6101fb565b60405190151581526020016100b8565b61016182826101fb565b6101cb576040517f08c379a000000000000000000000000000000000000000000000000000000000815260206004820152600e60248201527f4e6f7420617574686f72697a6564000000000000000000000000000000000000604482015260640160405180910390fd5b8273ffffffffffffffffffffffffffffffffffffffff16ff5b600181608081106101f457600080fd5b0154905081565b6040805160818082526110408201909252600091829190602082016110208036833701905050905060005b6080811015610269576001816080811061024257610242610442565b015482828151811061025657610256610442565b6020908102919091010152600101610226565b506081548160808151811061028057610280610442565b6020908102919091010152600080546040517fea50d0e400000000000000000000000000000000000000000000000000000000815273ffffffffffffffffffffffffffffffffffffffff9091169063ea50d0e4906102e690889088908790600401610471565b602060405180830381865afa158015610303573d6000803e3d6000fd5b505050506040513d601f19601f82011682018060405250810190610327919061050a565b95945050505050565b60008083601f84011261034257600080fd5b50813567ffffffffffffffff81111561035a57600080fd5b60208301915083602082850101111561037257600080fd5b9250929050565b60008060006040848603121561038e57600080fd5b833573ffffffffffffffffffffffffffffffffffffffff811681146103b257600080fd5b9250602084013567ffffffffffffffff8111156103ce57600080fd5b6103da86828701610330565b9497909650939450505050565b6000602082840312156103f957600080fd5b5035919050565b6000806020838503121561041357600080fd5b823567ffffffffffffffff81111561042a57600080fd5b61043685828601610330565b90969095509350505050565b7f4e487b7100000000000000000000000000000000000000000000000000000000600052603260045260246000fd5b604081528260408201528284606083013760006060848301015260007fffffffffffffffffffffffffffffffffffffffffffffffffffffffffffffffe0601f8501168201606081016060848303016020850152808551808352608084019150602087019350600092505b808310156104fe57835182526020820191506020840193506001830192506104db565b50979650505050505050565b60006020828403121561051c57600080fd5b8151801515811461052c57600080fd5b939250505056fea264697066735822122081344143d55a33938a89ef68526e967cfd42e53b1c5bc6015f903763619efab764736f6c634300081d0033",
  "linkReferences": {},
  "deployedLinkReferences": {}
}