{
  "_format": "hh-sol-artifact-1",
  "contractName": "Starter",
  "sourceName": "contracts/Starter.sol",
  "abi": [
    {
      "inputs": [
        {
          "internalType": "contract HonkVerifier",
          "name": "_verifier",
          "type": "address"
        }
      ],
      "stateMutability": "nonpayable",
      "type": "constructor"
    },
    {
      "inputs": [],
      "name": "getVerifiedCount",
      "outputs": [
        {
          "internalType": "uint256",
          "name": "",
          "type": "uint256"
        }
      ],
      "stateMutability": "view",
      "type": "function"
    },
    {
      "inputs": [],
      "name": "verifiedCount",
      "outputs": [
        {
          "internalType": "uint256",
          "name": "",
          "type": "uint256"
        }
      ],
      "stateMutability": "view",
      "type": "function"
    },
    {
      "inputs": [],
      "name": "verifier",
      "outputs": [
        {
          "internalType": "contract HonkVerifier",
          "name": "",
          "type": "address"
        }
      ],
      "stateMutability": "view",
      "type": "function"
    },
    {
      "inputs": [
        {
          "internalType": "bytes",
          "name": "proof",
          "type": "bytes"
        },
        {
          "internalType": "bytes32[]",
          "name": "y",
          "type": "bytes32[]"
        }
      ],
      "name": "verifyEqual",
      "outputs": [
        {
          "internalType": "bool",
          "name": "",
          "type": "bool"
        }
      ],
      "stateMutability": "nonpayable",
      "type": "function"
    }
  ],
  "bytecode": "0x6080604052348015600f57600080fd5b506040516103e83803806103e8833981016040819052602c916050565b600080546001600160a01b0319166001600160a01b0392909216919091179055607e565b600060208284031215606157600080fd5b81516001600160a01b0381168114607757600080fd5b9392505050565b61035b8061008d6000396000f3fe608060405234801561001057600080fd5b506004361061004c5760003560e01c80632b7ac3f3146100515780636bfe4ec2146100815780637d08867e14610098578063cb794042146100bb575b600080fd5b600054610064906001600160a01b031681565b6040516001600160a01b0390911681526020015b60405180910390f35b61008a60015481565b604051908152602001610078565b6100ab6100a63660046101a2565b6100c3565b6040519015158152602001610078565b60015461008a565b60008054604051633a94343960e21b815282916001600160a01b03169063ea50d0e4906100fa908990899089908990600401610271565b602060405180830381865afa158015610117573d6000803e3d6000fd5b505050506040513d601f19601f8201168201806040525081019061013b91906102d5565b9050806101835760405162461bcd60e51b8152602060048201526012602482015271141c9bdbd9881a5cc81b9bdd081d985b1a5960721b604482015260640160405180910390fd5b60018054906000610193836102fe565b90915550909695505050505050565b600080600080604085870312156101b857600080fd5b84356001600160401b038111156101ce57600080fd5b8501601f810187136101df57600080fd5b80356001600160401b038111156101f557600080fd5b87602082840101111561020757600080fd5b6020918201955093508501356001600160401b0381111561022757600080fd5b8501601f8101871361023857600080fd5b80356001600160401b0381111561024e57600080fd5b8760208260051b840101111561026357600080fd5b949793965060200194505050565b6040815283604082015283856060830137600060608583018101829052601f19601f8701168301838103820160208501529081018490526001600160fb1b038411156102bc57600080fd5b8360051b80866080840137016080019695505050505050565b6000602082840312156102e757600080fd5b815180151581146102f757600080fd5b9392505050565b60006001820161031e57634e487b7160e01b600052601160045260246000fd5b506001019056fea26469706673582212202c1586d3aba7806fc37962baa0f91c3de306fe09250b52cd05b6100c2031c17564736f6c634300081c0033",
  "linkReferences": {},
  "deployedLinkReferences": {}
}