{
  "_format": "hh-sol-artifact-1",
  "contractName": "ZFace",
  "sourceName": "contracts/ZFace.sol",
  "abi": [
    {
      "inputs": [
        {
          "internalType": "address",
          "name": "_verifier",
          "type": "address"
        },
        {
          "internalType": "bytes32[128]",
          "name": "_faceEncoding",
          "type": "bytes32[128]"
        },
        {
          "internalType": "bytes32",
          "name": "_threshold",
          "type": "bytes32"
        }
      ],
      "stateMutability": "nonpayable",
      "type": "constructor"
    },
    {
      "inputs": [],
      "name": "receive",
      "outputs": [],
      "stateMutability": "payable",
      "type": "function"
    },
    {
      "inputs": [],
      "name": "verifier",
      "outputs": [
        {
          "internalType": "contract HonkVerifier",
          "name": "",
          "type": "address"
        }
      ],
      "stateMutability": "view",
      "type": "function"
    },
    {
      "inputs": [
        {
          "internalType": "bytes",
          "name": "proof",
          "type": "bytes"
        }
      ],
      "name": "verify",
      "outputs": [
        {
          "internalType": "bool",
          "name": "",
          "type": "bool"
        }
      ],
      "stateMutability": "view",
      "type": "function"
    },
    {
      "inputs": [
        {
          "internalType": "address payable",
          "name": "to",
          "type": "address"
        },
        {
          "internalType": "bytes",
          "name": "proof",
          "type": "bytes"
        }
      ],
      "name": "withdraw",
      "outputs": [],
      "stateMutability": "nonpayable",
      "type": "function"
    }
  ],
  "bytecode": "0x608060405234801561001057600080fd5b5060405161064e38038061064e83398101604081905261002f916100cc565b600080546001600160a01b0319166001600160a01b0385161790556100576001836080610063565b50608155506101709050565b8260808101928215610091579160200282015b82811115610091578251825591602001919060010190610076565b5061009d9291506100a1565b5090565b5b8082111561009d57600081556001016100a2565b634e487b7160e01b600052604160045260246000fd5b600080600061104084860312156100e257600080fd5b83516001600160a01b03811681146100f957600080fd5b9250603f8401851361010a57600080fd5b60405161100081016001600160401b038111828210171561012d5761012d6100b6565b6040528061102086018781111561014357600080fd5b602087015b81811015610160578051835260209283019201610148565b5051949791965093945092505050565b6104cf8061017f6000396000f3fe60806040526004361061003f5760003560e01c80632b7ac3f3146100445780634bb78b141461009b5780638e760afe146100bd578063a3e76c0f146100bb575b600080fd5b34801561005057600080fd5b506000546100719073ffffffffffffffffffffffffffffffffffffffff1681565b60405173ffffffffffffffffffffffffffffffffffffffff90911681526020015b60405180910390f35b3480156100a757600080fd5b506100bb6100b63660046102f8565b6100ed565b005b3480156100c957600080fd5b506100dd6100d8366004610366565b61017a565b6040519015158152602001610092565b6100f7828261017a565b610161576040517f08c379a000000000000000000000000000000000000000000000000000000000815260206004820152600e60248201527f4e6f7420617574686f72697a6564000000000000000000000000000000000000604482015260640160405180910390fd5b8273ffffffffffffffffffffffffffffffffffffffff16ff5b6040805160818082526110408201909252600091829190602082016110208036833701905050905060005b60808110156101e857600181608081106101c1576101c16103a8565b01548282815181106101d5576101d56103a8565b60209081029190910101526001016101a5565b50608154816080815181106101ff576101ff6103a8565b6020908102919091010152600080546040517fea50d0e400000000000000000000000000000000000000000000000000000000815273ffffffffffffffffffffffffffffffffffffffff9091169063ea50d0e490610265908890889087906004016103d7565b602060405180830381865afa158015610282573d6000803e3d6000fd5b505050506040513d601f19601f820116820180604052508101906102a69190610470565b95945050505050565b60008083601f8401126102c157600080fd5b50813567ffffffffffffffff8111156102d957600080fd5b6020830191508360208285010111156102f157600080fd5b9250929050565b60008060006040848603121561030d57600080fd5b833573ffffffffffffffffffffffffffffffffffffffff8116811461033157600080fd5b9250602084013567ffffffffffffffff81111561034d57600080fd5b610359868287016102af565b9497909650939450505050565b6000806020838503121561037957600080fd5b823567ffffffffffffffff81111561039057600080fd5b61039c858286016102af565b90969095509350505050565b7f4e487b7100000000000000000000000000000000000000000000000000000000600052603260045260246000fd5b604081528260408201528284606083013760006060848301015260007fffffffffffffffffffffffffffffffffffffffffffffffffffffffffffffffe0601f8501168201606081016060848303016020850152808551808352608084019150602087019350600092505b808310156104645783518252602082019150602084019350600183019250610441565b50979650505050505050565b60006020828403121561048257600080fd5b8151801515811461049257600080fd5b939250505056fea26469706673582212205a054aa9c3fcbf6c8d7167f502f652318fd930dbd8e2e57c95e6ab14b4ef4cae64736f6c634300081d0033",
  "linkReferences": {},
  "deployedLinkReferences": {}
}