{
  "_format": "hh-sol-artifact-1",
  "contractName": "Deployer",
  "sourceName": "contracts/ZFace.sol",
  "abi": [
    {
      "anonymous": false,
      "inputs": [
        {
          "indexed": false,
          "internalType": "address",
          "name": "addr",
          "type": "address"
        }
      ],
      "name": "Deployed",
      "type": "event"
    },
    {
      "inputs": [
        {
          "internalType": "bytes32",
          "name": "salt",
          "type": "bytes32"
        },
        {
          "internalType": "address",
          "name": "owner",
          "type": "address"
        }
      ],
      "name": "deploy",
      "outputs": [
        {
          "internalType": "address",
          "name": "addr",
          "type": "address"
        }
      ],
      "stateMutability": "payable",
      "type": "function"
    },
    {
      "inputs": [
        {
          "internalType": "bytes32",
          "name": "salt",
          "type": "bytes32"
        },
        {
          "internalType": "address",
          "name": "owner",
          "type": "address"
        }
      ],
      "name": "getAddress",
      "outputs": [
        {
          "internalType": "address",
          "name": "",
          "type": "address"
        }
      ],
      "stateMutability": "view",
      "type": "function"
    },
    {
      "inputs": [
        {
          "internalType": "address",
          "name": "owner",
          "type": "address"
        }
      ],
      "name": "getBytecode",
      "outputs": [
        {
          "internalType": "bytes",
          "name": "",
          "type": "bytes"
        }
      ],
      "stateMutability": "pure",
      "type": "function"
    }
  ],
  "bytecode": "0x6080604052348015600f57600080fd5b50610a758061001f6000396000f3fe6080604052600436106100345760003560e01c80630c6008af1461003957806320d06ff91461006f5780638c1fb931146100b4575b600080fd5b34801561004557600080fd5b506100596100543660046102bf565b6100c7565b6040516100669190610305565b60405180910390f35b34801561007b57600080fd5b5061008f61008a366004610356565b61017b565b60405173ffffffffffffffffffffffffffffffffffffffff9091168152602001610066565b61008f6100c2366004610356565b610215565b6060604051806020016100d990610289565b7fffffffffffffffffffffffffffffffffffffffffffffffffffffffffffffffe082820381018352601f90910116604081815273ffffffffffffffffffffffffffffffffffffffff8516602083015201604080517fffffffffffffffffffffffffffffffffffffffffffffffffffffffffffffffe0818403018152908290526101659291602001610382565b6040516020818303038152906040529050919050565b600080610187836100c7565b8051602091820120604080517fff00000000000000000000000000000000000000000000000000000000000000818501523060601b7fffffffffffffffffffffffffffffffffffffffff000000000000000000000000166021820152603581019790975260558088019290925280518088039092018252607590960190955284519401939093209392505050565b600080610221836100c7565b90508381516020830134f59150813b61023957600080fd5b60405173ffffffffffffffffffffffffffffffffffffffff831681527ff40fcec21964ffb566044d083b4073f29f7f7929110ea19e1b3ebe375d89055e9060200160405180910390a15092915050565b61068e806103b283390190565b803573ffffffffffffffffffffffffffffffffffffffff811681146102ba57600080fd5b919050565b6000602082840312156102d157600080fd5b6102da82610296565b9392505050565b60005b838110156102fc5781810151838201526020016102e4565b50506000910152565b60208152600082518060208401526103248160408501602087016102e1565b601f017fffffffffffffffffffffffffffffffffffffffffffffffffffffffffffffffe0169190910160400192915050565b6000806040838503121561036957600080fd5b8235915061037960208401610296565b90509250929050565b600083516103948184602088016102e1565b8351908301906103a88183602088016102e1565b0194935050505056fe608060405234801561001057600080fd5b5060405161068e38038061068e83398101604081905261002f916100c8565b600080546001600160a01b0319166001600160a01b038416179055610057600182608061005f565b505050610168565b826080810192821561008d579160200282015b8281111561008d578251825591602001919060010190610072565b5061009992915061009d565b5090565b5b80821115610099576000815560010161009e565b634e487b7160e01b600052604160045260246000fd5b60008061102083850312156100dc57600080fd5b82516001600160a01b03811681146100f357600080fd5b9150603f8301841361010457600080fd5b60405161100081016001600160401b0381118282101715610127576101276100b2565b6040528061102085018681111561013d57600080fd5b602086015b8181101561015a578051835260209283019201610142565b505050809150509250929050565b610517806101776000396000f3fe6080604052600436106100435760003560e01c80632b7ac3f31461004f5780634bb78b14146100a657806352f93b17146100c85780638e760afe146100f657600080fd5b3661004a57005b600080fd5b34801561005b57600080fd5b5060005461007c9073ffffffffffffffffffffffffffffffffffffffff1681565b60405173ffffffffffffffffffffffffffffffffffffffff90911681526020015b60405180910390f35b3480156100b257600080fd5b506100c66100c1366004610327565b610126565b005b3480156100d457600080fd5b506100e86100e3366004610395565b6101b3565b60405190815260200161009d565b34801561010257600080fd5b506101166101113660046103ae565b6101ca565b604051901515815260200161009d565b61013082826101ca565b61019a576040517f08c379a000000000000000000000000000000000000000000000000000000000815260206004820152600e60248201527f4e6f7420617574686f72697a6564000000000000000000000000000000000000604482015260640160405180910390fd5b8273ffffffffffffffffffffffffffffffffffffffff16ff5b600181608081106101c357600080fd5b0154905081565b6040805160808082526110208201909252600091829190602082016110008036833701905050905060005b60808110156102385760018160808110610211576102116103f0565b0154828281518110610225576102256103f0565b60209081029190910101526001016101f5565b50600080546040517fea50d0e400000000000000000000000000000000000000000000000000000000815273ffffffffffffffffffffffffffffffffffffffff9091169063ea50d0e4906102949088908890879060040161041f565b602060405180830381865afa1580156102b1573d6000803e3d6000fd5b505050506040513d601f19601f820116820180604052508101906102d591906104b8565b95945050505050565b60008083601f8401126102f057600080fd5b50813567ffffffffffffffff81111561030857600080fd5b60208301915083602082850101111561032057600080fd5b9250929050565b60008060006040848603121561033c57600080fd5b833573ffffffffffffffffffffffffffffffffffffffff8116811461036057600080fd5b9250602084013567ffffffffffffffff81111561037c57600080fd5b610388868287016102de565b9497909650939450505050565b6000602082840312156103a757600080fd5b5035919050565b600080602083850312156103c157600080fd5b823567ffffffffffffffff8111156103d857600080fd5b6103e4858286016102de565b90969095509350505050565b7f4e487b7100000000000000000000000000000000000000000000000000000000600052603260045260246000fd5b604081528260408201528284606083013760006060848301015260007fffffffffffffffffffffffffffffffffffffffffffffffffffffffffffffffe0601f8501168201606081016060848303016020850152808551808352608084019150602087019350600092505b808310156104ac5783518252602082019150602084019350600183019250610489565b50979650505050505050565b6000602082840312156104ca57600080fd5b815180151581146104da57600080fd5b939250505056fea2646970667358221220109d875af1f61f24598bf2510b2b889a1b501f684633ed348fefd551872ca59764736f6c634300081b0033a264697066735822122075e873663d9d5ad63ba7f1dd489212b66c3ae5bfa38067d0698dc8ed5903cec264736f6c634300081b0033",
  "linkReferences": {},
  "deployedLinkReferences": {}
}